:100000000C94D3010C949C020C9475020C944E0237
:100010000C9427020C94FB010C94FB010C9400023D
:100020000C94FB010C94FB010C94C3020C9435035B
:100030000C94FB010C94FB010C94FB010C94FB0150
:100040000C94FB010C94FB010C94FB010C94FB0140
:100050000C94FB010C94FB010C94FB010C949B0C85
:100060000C94FB010C94FB010C94FB010C94FB0120
:100070000C94FB010C94FB010C94FB010C94FB0110
:100080000C94FB010C94FB010C94FB010C94FB0100
:100090000C94FB010C94FB010C94FB010C94FB01F0
:1000A0000C94FB010C94FB010C94FB01070B0A0B55
:1000B000F90AFD0A030B2B0B2B0B2B0B0E0B120B50
:1000C000160B1C0B200B2B0B260B0403090412012F
:1000D0000002EF02014041233680000101020301CA
:1000E00041726475696E6F204C4C430041726475B7
:1000F000696E6F204C656F6E6172646F0000000066
:1001000000000000002A2B28000000000000000072
:10011000000000000000000000000000002C9EB461
:10012000A0A1A2A434A6A7A5AE362D3738271E1F3E
:1001300020212223242526B333B62EB7B89F8485E9
:10014000868788898A8B8C8D8E8F909192939495D7
:10015000969798999A9B9C9D2F3130A3AD350405B5
:10016000060708090A0B0C0D0E0F101112131415B7
:10017000161718191A1B1C1DAFB1B0B500080B00DB
:10018000020202010009040000010202000005242D
:1001900000100105240101010424020605240600C3
:1001A000010705810310004009040100020A000054
:1001B000000705020240000007058302400000001E
:1001C000000000240027002A002D0030000000005D
:1001D00000250028002B002E003100000000002325
:1001E00000260029002C002F00040404040403044A
:1001F00005020202020403020202020606060606C5
:1002000006040402020204040408020110408040B3
:10021000102040804080080204018040201002012C
:10022000108010204040200000000200090F000054
:10023000030401000C0000000000000000000000AA
:1002400000000000000005010905A1018504050961
:100250001901290F15002501950F750181029501DE
:100260007501810305010930093109321581257FA6
:10027000950375088102850515002501050A090108
:10028000A1020508094B750195019102C0050A09F3
:1002900002A1020508094B750195019102C0050AEA
:1002A0000903A1020508094B750195019102C005DA
:1002B0000A0904A1020508094B750195019102C0C4
:1002C000050A0905A1020508094B7501950191026E
:1002D000C0050A0906A1020508094B75019501919F
:1002E00002C0050A0907A1020508094B750195011D
:1002F0009102C0050A0908A1020508094B7501957C
:10030000019102C0050A0909A1020508094B7501FE
:1003100095019102C0050A090AA1020508094B7559
:100320000195019102C0050A090BA1020508094BBC
:10033000750195019102C0950175059103C00501F4
:100340000902A1010901A10085010509190129037B
:10035000150025019503750181029501750581033D
:1003600005010930093109381581257F7508950384
:100370008106C0C005010906A1018502050719E033
:1003800029E7150025017501950881029501750879
:10039000810395067508150025650507190029656F
:1003A0008100C000471111241FBECFEFDAE0DEBF8D
:1003B000CDBF11E0A0E0B1E0E6E4F7E202C00590B5
:1003C0000D92AA35B107D9F722E0AAE5B1E001C044
:1003D0001D92A535B207E1F711E0C3EDD1E004C0ED
:1003E0002197FE010E947413C23DD107C9F70E94F4
:1003F000E50C0C94A1130C94000008950E949C132A
:100400001F920F920FB60F9211242F933F934F9389
:100410005F936F937F938F939F93AF93BF93EF936C
:10042000FF93E0911301F09114010995FF91EF9171
:10043000BF91AF919F918F917F916F915F914F91FC
:100440003F912F910F900FBE0F901F9018951F9204
:100450000F920FB60F9211242F933F934F935F93F8
:100460006F937F938F939F93AF93BF93EF93FF937C
:10047000E0911101F09112010995FF91EF91BF9167
:10048000AF919F918F917F916F915F914F913F912C
:100490002F910F900FBE0F901F9018951F920F92E3
:1004A0000FB60F9211242F933F934F935F936F9347
:1004B0007F938F939F93AF93BF93EF93FF93E091BD
:1004C0000F01F09110010995FF91EF91BF91AF914C
:1004D0009F918F917F916F915F914F913F912F915C
:1004E0000F900FBE0F901F9018951F920F920FB68E
:1004F0000F9211242F933F934F935F936F937F93AA
:100500008F939F93AF93BF93EF93FF93E0910D0170
:10051000F0910E010995FF91EF91BF91AF919F91DD
:100520008F917F916F915F914F913F912F910F909C
:100530000FBE0F901F9018951F920F920FB60F923B
:1005400011242F933F934F935F936F937F938F93D8
:100550009F93AF93BF93EF93FF93E0910B01F091C3
:100560000C010995FF91EF91BF91AF919F918F91F0
:100570007F916F915F914F913F912F910F900FBE9F
:100580000F901F9018951F920F920FB60F92112483
:100590008F939F938091E1009091E100937F9093DE
:1005A000E10083FF0FC01092E90091E09093EB000F
:1005B0001092EC0092E39093ED001092A90198E064
:1005C0009093F00082FF20C093E09093E900909117
:1005D000F200992319F09AE39093E80090915E015C
:1005E000992339F090915E01915090935E01992387
:1005F00089F19091A801992339F09091A801915027
:100600009093A801992341F184FF10C08091E200EA
:100610008E7E81608093E2008091E1008F7E8093E6
:10062000E10080915F018E7E806111C080FF16C065
:100630008091E2008E7E80618093E2008091E100F3
:100640008E7E8093E10080915F018E7E8160809339
:100650005F0104C05D9ACDCF289AD6CF9F918F912C
:100660000F900FBE0F901F9018951F920F920FB60C
:100670000F921124CF92DF92EF92FF920F931F936C
:100680002F933F934F935F936F937F938F939F939A
:10069000AF93BF93EF93FF93CF93DF93CDB7DEB7C5
:1006A0006C97DEBFCDBF1092E9008091E80083FF18
:1006B000F5C168E0CE0145960E94D40782EF809391
:1006C000E8008D8987FF05C09091E80090FFFCCF7E
:1006D00003C09EEF9093E800982F907609F0C6C073
:1006E0009E894F89588D2F89F88C91110CC08038C4
:1006F00029F4809163018093F10002C01092F1000F
:100700001092F1003FC1913051F481113BC1413051
:10071000510509F037C1809163018D7F0BC0933083
:1007200061F481112FC14130510509F02BC1809135
:10073000630182608093630125C1953049F4809103
:10074000E80080FFFCCF822F80688093E3001AC10D
:10075000963009F05EC00B8D1C8D22E01092E900EE
:1007600010925D0110925C01F21232C010925B0196
:1007700010925A010E94730899E0BE016F5F7F4F8B
:10078000DB01E92F1D92EA95E9F79983FA8291E05E
:100790009E8390EA98879AEF998720915C01309127
:1007A0005D01275F3F4F3C832B838D831092E900CF
:1007B00010925D0110925C0110935B0100935A014D
:1007C00049E050E080E00E947B060E947308DAC096
:1007D00010935B0100935A010E945F08DC0112969E
:1007E0000D911C9113970115110509F4B5C0D8019D
:1007F000ED91FC910480F581E02DBE016B5E7F4F91
:10080000C8010995009709F0C1C0F801008511855C
:10081000EACF973009F43FC1983021F481E080930A
:10082000F100B0C0993009F0ADC0837009F033C158
:10083000E1E0F1E081E031E096E32081211109C09F
:100840008EE78093EA001092EA008F898093A901D5
:1008500099C08093E9003093EB0021912093EC0044
:100860009093ED008F5F873041F7EACF8B8D9C8DA1
:100870001092E90010925D0110925C0190935B016F
:1008800080935A01898D81114DC08E899D89913A3D
:1008900049F4813209F0FFC047E050E067E171E0C0
:1008A00080E0B5C0913209F0F6C0833269F48F89D7
:1008B000988DA0E0B0E08093070190930801A09389
:1008C0000901B0930A015EC0803239F467E070E03C
:1008D00087E191E00E94E10755C0823209F052C0E1
:1008E0008F8980931E01EEEFFFE7859194918B3FF6
:1008F0009C4D19F0E0E0F8E002C0EEEFFAE08091E4
:10090000170190911801A0911901B0911A01803B33
:100910009440A105B10509F09EC080911E0180FFA1
:1009200079C099C00E945F08FC0102811381011502
:10093000110509F4B0C0D801ED91FC910190F0814E
:10094000E02DBE016B5E7F4FC801099581111AC071
:10095000F80100851185EBCFF1E0FF1609F44EC0D8
:10096000F3E0FF1298C08F89882309F44AC08230CF
:1009700089F440E860E18CEE90E00E94460688230E
:1009800009F489C08EEF8093E80088C01816190614
:10099000CCF381C0813029F440E86BE080EE90E038
:1009A000ECCF833009F077C00E945F08DC0112961B
:1009B000ED90FC9013978E010F5F1F4F6801E114BB
:1009C000F10479F0D701ED91FC910680F781E02DDB
:1009D000B801C7010995080F111DF701E084F184E2
:1009E000EECFD8011C92F60101900020E9F7319773
:1009F000BF016C197D0940E0C601BFCF6EEC70E00D
:100A000002C06AEC70E0FB01449150E080E80E9473
:100A10007B06B8CFEE3F2AE0F20751F0808191814A
:100A20008737A7E79A0721F09093FF0A8093FE0A81
:100A300087E797E7918380838091600080936201CC
:100A40009BE088E10FB6F894A895809360000FBEF4
:100A50009093600097CF808191818737974709F005
:100A600091CFA8958091600088618093600080910B
:100A7000620180936000EE3FBAE0FB0739F080919D
:100A8000FE0A9091FF0A918380837CCF1092FF0A27
:100A90001092FE0A77CF81E28093EB006C960FB63E
:100AA000F894DEBF0FBECDBFDF91CF91FF91EF91E4
:100AB000BF91AF919F918F917F916F915F914F9176
:100AC0003F912F911F910F91FF90EF90DF90CF906A
:100AD0000F900FBE0F901F90189540915C015091A0
:100AE0005D0120915A0130915B0142175307B4F424
:100AF0009091E8009570E1F39091E80092FD19C0A3
:100B00008093F10080915C0190915D0101968F735B
:100B10009927892B19F48EEF8093E80080915C016E
:100B200090915D01019690935D0180935C0181E05D
:100B3000089580E00895CF92DF92EF92FF920F9395
:100B40001F93CF93DF936C017A018B01C0E0D0E05B
:100B5000CE15DF0581F0D8016D918D01D601ED91A3
:100B6000FC910190F081E02DC6010995892B11F0CF
:100B70002196EECF7E01C701DF91CF911F910F919A
:100B8000FF90EF90DF90CF900895DC01ED91FD9103
:100B90008081ED91FD919081ED91FD916C9163705B
:100BA0008E2309F064609F2309F06860E2EEF5E0AF
:100BB000E60FF11D659565956D936D917D918D9114
:100BC0009D91099423C01AC012C016C010C01EC047
:100BD00009C014C013C006C019C009C00DC007C0A9
:100BE0000DC014C062507040804090400BC06150F6
:100BF00070408040904006C06E5F01C06F5F7F4FC5
:100C00008F4F9F4F9E938E937E936E930895809106
:100C10009A0190919B010C94C50580919801909147
:100C200099010C94C50580919601909197010C94BF
:100C3000C50580919401909195010C94C505089586
:100C400080E090E00895DC01FB0188E4808389E482
:100C5000818384E482831D969C911D979F709F5B86
:100C600093831D968D919C911E9724E09695879570
:100C70002A95E1F78F708F5B848385E00895FC01EE
:100C800082818F5BFB01808381E00895DF92EF9288
:100C9000FF920F931F93CF93DF93D82EF92EE42E5C
:100CA000062F10E0C8010196880F0E946D0583E0B1
:100CB0000E946D05CD2DDF2D0C0F1D1FC017D10714
:100CC00089F0E7FE03C0FE01849101C088810E9483
:100CD0006D05F82E80E00E946D058F21219681110F
:100CE000EDCF01C081E0DF91CF911F910F91FF9077
:100CF000EF90DF900895DF92EF92FF920F931F9392
:100D0000CF93DF93D82E8A017B01E40EF51EEB0111
:100D1000CE15DF0571F0D7FE03C0FE01849101C03E
:100D200088810E946D0521968111F2CF8FEF9FEF90
:100D300001C0C801DF91CF911F910F91FF90EF90FB
:100D4000DF900895EF92FF920F931F93CF93DF935D
:100D5000FB012081213851F52381223239F5DC0154
:100D600012962C9130E04481558142175307F1F4DB
:100D7000EC010B851C85E12CF12C0115110591F07E
:100D8000F801448155816281738180E80E947B066D
:100D90008F3FFFEF9F0769F0E80EF91ED8010D9114
:100DA0001C91EBCF81E08F87C70105C080E090E008
:100DB00002C08FEF9FEFDF91CF911F910F91FF90B6
:100DC000EF900895CF93DF93CDB7DEB769970FB655
:100DD000F894DEBF0FBECDBFFC01DB018C918F5FAD
:100DE0008C93BE016F5F7F4F89E1DB011D928A9575
:100DF000E9F729E0298384E08A8391E09D8383E0F9
:100E00008E832A8721E22B879C879D879F8722E2FA
:100E1000288B27E02B8B25E02C8B8E8B20E430E079
:100E2000388F2F8B998F82818B8395858685998BBF
:100E30008A8B838180688D8B49E150E080E00E943D
:100E40007B0669960FB6F894DEBF0FBECDBFDF916B
:100E5000CF9108952FB7F89487708093E90090910F
:100E6000E800892F807295FF04C09091F20080E421
:100E7000891B2FBF08957F928F929F92AF92BF924E
:100E8000CF92DF92EF92FF920F931F93CF93DF9356
:100E9000C82E8B017A018091A901811103C08FEFC7
:100EA0009FEF74C080915F0180FF05C08091E000DA
:100EB00082608093E000CE2DDF2DD12C8AEFB82EFA
:100EC0008C2D8770982E8C2D8072882E8C2D80749E
:100ED000782E9AE3A92E209719F4DD2009F451C049
:100EE0008C2D0E942A0781110AC0BA94BB20B9F246
:100EF00061E070E080E090E00E94610CECCF282F70
:100F000030E0C217D3070CF48C2F9FB7F89490925F
:100F1000E9002091E80025FF32C0282F30E0C21BF5
:100F2000D30B882029F08150A0F01092F100FBCF64
:100F3000F801C7FE0AC0815050F044914093F1007F
:100F40003196F9CF41914093F1008150D8F7020FCB
:100F5000131FDD2019F0A092E8000AC08091E8007C
:100F600085FD08C0A092E800DD24D394209739F0D5
:100F7000D12C05C0209719F47110A092E8009FBFF2
:100F8000AACF5D9884E680935E01C701DF91CF917F
:100F90001F910F91FF90EF90DF90CF90BF90AF9097
:100FA0009F908F907F900895615030F02091F100D4
:100FB000FC0120830196F8CF289884E68093A8014D
:100FC0000895AF92BF92DF92EF92FF920F931F931B
:100FD000CF93DF935C018B01EB019BEFD92E209720
:100FE000C1F07E01C134D1051CF080E4E82EF12C63
:100FF0008091E80082FFFCCFC8018C1B9D0B6E2DF9
:101000008A0D9B1D0E94D407D092E800CE19DF09FB
:10101000E6CFC801DF91CF911F910F91FF90EF9024
:10102000DF90BF90AF900895CF93DF9300D01F92D1
:10103000CDB7DEB7DC01FB0112968C91129790E0E0
:10104000248135818217930799F591818081813AB6
:1010500031F481E0913069F1933051F52AC0813249
:1010600039F59B3021F482811F968C931FC09A30F2
:1010700021F4828150968C9319C09930C9F48681ED
:1010800097810397A9F463E070E0CE0101960E9476
:10109000E107039759F48B8190E0982F88272A81E4
:1010A000820F911D909361018093600181E001C0E6
:1010B00080E00F900F900F90DF91CF910895809175
:1010C000A00181110DC082E080939C0184E0809397
:1010D0009D0110929F0110929E0181E08093A001DA
:1010E0008CE991E008950F931F93CF93DF931F92A4
:1010F000CDB7DEB782E0898342E450E06DE771E06E
:1011000080E80E947B060E945F08DC0112960D9128
:101110001C9113970115110589F0D801ED91FC91EF
:101120000280F381E02DBE016F5F7F4FC8010995FA
:1011300097FD04C0F80100851185ECCF89810F90DF
:10114000DF91CF911F910F910895EF92FF920F932E
:101150001F93CF93DF930FE111E0C0E0D0E0E82EC2
:10116000F12CC7010C2E02C0959587950A94E2F7E1
:1011700080FF02C061E001C060E0F80180810E9450
:10118000F60B21960F5F1F4FC730D10551F7DF9146
:10119000CF911F910F91FF90EF900895CF93DF9320
:1011A000EC018B85823028F4F894CE010E94C505AD
:1011B00001C0F8946F81788589859A857894DF914C
:1011C000CF91089580918C0181116AC081E0809354
:1011D0007F018093800125E831E0309382012093E4
:1011E0008101109284011092830124E331E0309355
:1011F0007C0120937B01109287011092860110924E
:1012000089011092880180938A0180938B0181EC7F
:10121000809385010E945F08FC01218180917F01FC
:1012200090E0820F911D0897C4F5A281B3811097B9
:1012300029F48BE791E0938382830EC018968D91F9
:101240009C911997009711F0DC01F8CF8BE791E0A2
:1012500019969C938E931897808180937D0181814C
:1012600080937E01908180918001890F808380E04E
:1012700090917F01891788F4A0918101B09182013A
:10128000A80FB11D9C91A181B0E0A050BF4F9C93CD
:1012900091819F5F91838F5FEBCF81E080938C0181
:1012A0008BE791E00895CF93DF93DC01683810F06D
:1012B00068582DC0E62FF0E067FF11C0E058F10933
:1012C00081E090E001C0880FEA95EAF714969C91BE
:1012D0001497892B14968C93149760E018C0E350F0
:1012E000FF4F6491611109C081E090E013969C93D7
:1012F0008E93129780E090E046C067FF08C0149676
:101300008C911497826014968C9314976F7716962D
:101310008C911697681751F117968C91179768174B
:1013200029F118968C911897681701F119968C91EC
:1013300019976817D9F01A968C911A976817B1F017
:101340001B968C911B97681789F0FD01369680E0FB
:1013500090E02191211105C0FD01E80FF91F66837E
:1013600005C0019686309105A1F7BECFED010E9420
:10137000E208AE014C5F5F4F28E030E062E00E947F
:101380006C0B81E090E0DF91CF910895CF93DF93D4
:10139000DC01683810F0685825C0E62FF0E067FFE0
:1013A00012C0E058F10981E090E001C0880FEA9591
:1013B000EAF7809514969C911497892314968C9340
:1013C000149760E00FC0E350FF4F6491662321F152
:1013D00067FF08C014968C9114978D7F14968C9398
:1013E00014976F77FD0186E0662321F096816913DB
:1013F00001C01682815031968111F6CFED010E9415
:10140000E208AE014C5F5F4F28E030E062E00E94EE
:101410006C0B81E090E002C080E090E0DF91CF9122
:101420000895EF92FF921F93CF93DF93EC01162F55
:101430000E9453097C01612FCE010E94C609C70199
:101440009927DF91CF911F91FF90EF900895FC01B4
:10145000A385B485109719F47487638709C08D91AB
:101460009C911197009711F0DC01F9CF6D937C935B
:1014700025853685DB0114968D919C911597820FF9
:10148000931F9687858708952091A901211103C094
:101490008FEF9FEF08955FB7F89422E02093E90063
:1014A0002091F20030E01216130614F421E030E02F
:1014B000422FFC0184E6415038F028988093A8011F
:1014C0009091F1009193F7CF2115310521F0809192
:1014D000F200882319F05FBFC90108958BE680935D
:1014E000E800F9CFCF93DF931F92CDB7DEB76983C2
:1014F000DC01ED91FC910280F381E02D41E050E0B0
:10150000BE016F5F7F4F09950F90DF91CF910895D6
:1015100083E08093E9008091F200882319F08AE348
:101520008093E8000895CF93DF931F92CDB7DEB785
:10153000FC018485958597FD05C02FEF3FEF35872A
:1015400024870BC0CE0101960E94440A019719F42A
:10155000898190E002C08FEF9FEF0F90DF91CF91D4
:1015600008950F931F93CF93DF931F92CDB7DEB7EC
:101570008C01FC018485958597FF0EC0CE010196F4
:101580000E94440A019719F4898190E002C08FEF0C
:101590009FEFF80195878487F801848595850F90E2
:1015A000DF91CF911F910F910895FC01848595855E
:1015B00097FD0BC09FB7F89482E08093E90080917B
:1015C000F2009FBF90E0019608959FB7F89482E0E3
:1015D0008093E9008091F2009FBF90E0089590E031
:1015E000FC013197EF30F105B0F5EA5AFF4F0C944A
:1015F0007413809180008F7703C0809180008F7D6D
:1016000080938000089580918000877FF9CF84B512
:101610008F7702C084B58F7D84BD0895809190003E
:101620008F7707C0809190008F7D03C080919000DC
:10163000877F8093900008958091C0008F7703C0CA
:101640008091C0008F7D8093C00008958091C2007A
:10165000877F8093C20008953FB7F8948091D701A7
:101660009091D801A091D901B091DA0126B5A89B3B
:1016700005C02F3F19F00196A11DB11D3FBFBA2F24
:10168000A92F982F8827820F911DA11DB11DBC0184
:10169000CD0142E0660F771F881F991F4A95D1F749
:1016A0000895CF93DF93EC0180911E01882331F0E0
:1016B00083E00E943B071816190634F081E090E0A1
:1016C0009B838A8380E090E0DF91CF91089583E04F
:1016D0000E942A0790E00895AF92BF92CF92DF92C6
:1016E000EF92FF920F931F93CF93DF931F92CDB78B
:1016F000DEB77C0169836A01590141E050E0BE0117
:101700006F5F7F4FFC0183810E943B078C0197FD37
:101710000BC0F7018381A501B60180640E943B07DD
:1017200097FD02C0800F911F0F90DF91CF911F9105
:101730000F91FF90EF90DF90CF90BF90AF90089502
:10174000CF93DF9300D000D0CDB7DEB79091C50125
:1017500099838A836B831C820E94E20824E030E034
:10176000AE014F5F5F4F61E00E946C0B0F900F90D6
:101770000F900F90DF91CF910895CF93C82F80E005
:1017800090E00E94DB11C81731F06C2F80E090E0F0
:10179000CF910C94E311CF910895CF93DF93282F2D
:1017A00030E0F901E95DFD4F8491F901E85FFD4FFB
:1017B000D491F901E751FE4FC491CC2391F08111EE
:1017C0000E94EF0AEC2FF0E0EE0FFF1FE552FE4FF4
:1017D000A591B491EC91ED2381E090E021F480E0BB
:1017E00002C080E090E0DF91CF9108951F93CF93E6
:1017F000DF93282F30E0F901E95DFD4F8491F90175
:10180000E85FFD4FD491F901E751FE4FC491CC231D
:10181000C1F0162F81110E94EF0AEC2FF0E0EE0FBD
:10182000FF1FE353FE4FA591B4919FB7F894111198
:1018300004C08C91D095D82302C0EC91DE2BDC93B0
:101840009FBFDF91CF911F910895CF93DF9390E0D9
:10185000FC01E85FFD4F2491FC01E751FE4F8491AC
:10186000882361F190E0880F991FFC01E154FE4F3D
:10187000C591D491FC01E353FE4FA591B491611140
:1018800009C09FB7F8948881209582238883EC91C2
:101890002E230BC0623061F49FB7F8948881322FF9
:1018A000309583238883EC912E2B2C939FBF06C009
:1018B0008FB7F894E8812E2B28838FBFDF91CF91CB
:1018C00008958F929F92AF92BF92CF92DF92EF9244
:1018D000FF926B017C010E942C0B4B015C01C11437
:1018E000D104E104F104F1F00E942C0BDC01CB01E6
:1018F00088199909AA09BB09883E9340A105B10539
:1019000070F321E0C21AD108E108F10888EE880ED0
:1019100083E0981EA11CB11CC114D104E104F104A0
:1019200019F7DDCFFF90EF90DF90CF90BF90AF9091
:101930009F908F9008951F920F920FB60F921124CF
:101940002F933F938F939F93AF93BF938091D30136
:101950009091D401A091D501B091D6013091D201DE
:1019600023E0230F2D3720F40196A11DB11D05C0E2
:1019700026E8230F0296A11DB11D2093D20180936A
:10198000D3019093D401A093D501B093D601809157
:10199000D7019091D801A091D901B091DA010196B7
:1019A000A11DB11D8093D7019093D801A093D901B7
:1019B000B093DA01BF91AF919F918F913F912F9199
:1019C0000F900FBE0F901F901895CF93DF9300D00C
:1019D00000D01F92CDB7DEB7789484B5826084BD05
:1019E00084B5816084BD85B5826085BD85B5816023
:1019F00085BD80916E00816080936E0010928100A1
:101A0000809181008260809381008091810081605B
:101A1000809381008091800081608093800080911C
:101A20009100826080939100809191008160809309
:101A30009100809190008160809390008091C1001E
:101A400084608093C1008091C10082608093C10056
:101A50008091C10081608093C1008091C30081604A
:101A60008093C3008091C00082608093C000809109
:101A7000C20081608093C20080917A00846080936C
:101A80007A0080917A00826080937A0080917A0057
:101A9000816080937A0080917A00806880937A00D8
:101AA0001092A9011092630110925F018091D700FA
:101AB00081608093D70080EA8093D80089B58061E7
:101AC00089BD89B5826089BD09B400FEFDCF61E0A2
:101AD00070E080E090E00E94610C8091D8008F7CE3
:101AE00080618093D8008091E000807F8093E00047
:101AF0008091E1008E7E8093E1008DE08093E20092
:101B0000559A209A68EE73E080E090E00E94610CA4
:101B10002FE1E22E21E0F22E08E211E062E0F8016E
:101B200081918F010E94250C61E0F70181917F0175
:101B30000E94250CF1E00F321F0781F762E080E17F
:101B40000E94250C85E00E94CD0B8C0186E00E944E
:101B5000CD0B0115110551F40197E1F48091C301FA
:101B60009091C4010197B1F081E00CC0892B91F4F0
:101B70000130110579F48091C3019091C40102975D
:101B800049F082E00E94BD0B68EC70E080E090E0DC
:101B90000E94610C812C912C540193949BE3292E7B
:101BA0009FE1392E80E090E00E94DB11813009F046
:101BB00078C108E211E0E12CF12CF80181918F014C
:101BC0000E94CD0B20916601309167018130910513
:101BD00079F081E090E00E2C02C0880F991F0A94E2
:101BE000E2F7282B392B30936701209366010EC052
:101BF0000E2C02C0880F991F0A94E2F780959095E9
:101C0000822393239093670180936601FFEFEF1A7D
:101C1000FF0A87E0E816F10481F687EB91E00E9465
:101C2000CE080E94A01220E030E040EC5EE30E946B
:101C3000F6110E946812A50194010E945513609349
:101C400068018BEA91E00E94CE080E94A01220E079
:101C500030E040EC5EE30E94F6110E946812A5019C
:101C600094010E94551360936901809166010E945E
:101C7000A50880E10E94CD0B7C0184E00E94CD0B81
:101C800085E00E94CD0B86E00E94CD0B00911501EE
:101C900010911601E016F106D1F080E10E94CD0B03
:101CA000892BA9F484E00E94CD0B892B81F466E393
:101CB00086EC91E00E9453096EE170E080E090E0D4
:101CC0000E94610C66E386EC91E00E94C60984E004
:101CD0000E94CD0B019709F072C0E016F10609F4DD
:101CE0006EC080E10E94CD0B892B09F068C068E0CE
:101CF00086EC91E00E9453096CE271E080E090E094
:101D00000E94610C68E086EC91E00E94C6096EE1D9
:101D100070E080E090E00E94610C61E386EC91E06D
:101D20000E9453096EE170E080E090E00E94610C37
:101D300061E386EC91E00E94C6096EE170E080E00C
:101D400090E00E94610C62E386EC91E00E945309EE
:101D50006EE170E080E090E00E94610C62E386EC4E
:101D600091E00E94C6096EE170E080E090E00E9480
:101D7000610C63E386EC91E00E9453096EE170E030
:101D800080E090E00E94610C63E386EC91E00E94A9
:101D9000C6096EE170E080E090E00E94610C64E3AF
:101DA00086EC91E00E9453096EE170E080E090E0E3
:101DB0000E94610C64E386EC91E00E94C60984E015
:101DC0000E94CD0B31E020E0892B09F030E0032F99
:101DD000122F85E00E94CD0B892B11F40F5F1F4F4E
:101DE00086E00E94CD0B892B11F40F5F1F4F87E017
:101DF0000E94CD0B892B11F40F5F1F4F88E00E94CA
:101E0000CD0B892B11F40F5F1F4F89E00E94CD0B82
:101E1000892B11F40F5F1F4F8AE00E94CD0B892B95
:101E200011F40F5F1F4F809164019091650180173D
:101E3000910799F00730110581F46DE386EC91E08C
:101E40000E94530968E270E080E090E00E94610C1B
:101E50006DE386EC91E00E94C609F0921601E092D3
:101E600015011093650100936401909166018091C2
:101E7000670199838A83809168018B8380916901CE
:101E80008C8380916A018D830E94E20825E030E016
:101E9000AE014F5F5F4F64E00E946C0BC101019780
:101EA000F1F780E090E00E94DB11823009F03AC146
:101EB00087EB91E00E94CE080E94A0122B013C010A
:101EC00060937701709378018093790190937A0100
:101ED0008BEA91E00E94CE080E94A01260937301E9
:101EE000709374018093750190937601C0906F0197
:101EF000D0907001E0907101F0907201A7019601FD
:101F0000C301B2010E94F111882309F43DC0A70169
:101F10009601C301B2010E94F11160E087FF02C087
:101F200081EF01C08FE00E94A00B20E030E04FE77E
:101F300053ECC301B2010E94F11187FD0AC020E0F9
:101F400030E04FE753E4C301B2010E94501318166A
:101F50009CF4F8941092BE011092BF011092C0013F
:101F60001092C101789410926F011092700110923A
:101F700071011092720108C040926F01509270017D
:101F800060927101709272014090730150907401DF
:101F90006090750170907601C0906B01D0906C01DB
:101FA000E0906D01F0906E01A7019601C301B201AE
:101FB0000E94F111882309F43DC0A7019601C301D5
:101FC000B2010E945013181614F461EF01C06FE0C3
:101FD00080E00E94A00B20E030E04FE753ECC3010B
:101FE000B2010E94F11187FD0AC020E030E04FE706
:101FF00053E4C301B2010E94501318169CF4F894E4
:102000001092B2011092B3011092B4011092B50176
:10201000789410926B0110926C0110926D011092E5
:102020006E0108C040926B0150926C0160926D018C
:1020300070926E0185E00E94CD0B61E6892B29F438
:1020400086EC91E00E94530904C086EC91E00E9466
:10205000C60986E00E94CD0B63E7892B29F486EC44
:1020600091E00E94530904C086EC91E00E94C609E9
:1020700087E00E94CD0B64E6892B29F486EC91E081
:102080000E94530904C086EC91E00E94C60988E0D2
:102090000E94CD0B66E6892B29F486EC91E00E9424
:1020A000530904C086EC91E00E94C60989E00E94B1
:1020B000CD0B6AE7892B29F486EC91E00E94530945
:1020C00004C086EC91E00E94C6098AE00E94CD0B14
:1020D00068E7892B29F486EC91E00E94530904C03B
:1020E00086EC91E00E94C60984E00E94CD0B60EB73
:1020F000892B29F486EC91E00E94530904C086ECF8
:1021000091E00E94C60980E10E94CD0B61EB892B12
:1021100029F486EC91E00E94530904C086EC91E01A
:102120000E94C609E0E0F0E0309709F43BCD099544
:1021300039CD8130E1F148F18230A9F0833009F0E6
:1021400049C0709395016093940189E196E0909362
:102150000C0180930B01809169008C7F81608093DA
:102160006900E89A35C0709397016093960183E106
:1021700096E090930E0180930D0180916900837F1A
:10218000846080936900E99A23C0709399016093F9
:1021900098018DE096E09093100180930F0180915B
:1021A00069008F7C806180936900EA9A11C0709306
:1021B0009B0160939A0187E096E0909312018093CF
:1021C0001101809169008F73806480936900EB9A9C
:1021D00081E0089580E008950F931F93CF93DF93DC
:1021E000EC01062F142F62E0802F0E94250C62E084
:1021F000812F0E94250C802F90E0FC01E751FE4FBB
:10220000E491F0E0EE0FFF1FE552FE4FA591B4916F
:10221000B983A883FC01E85FFD4F24912C83812FB3
:1022200090E0FC01E751FE4FE491F0E0EE0FFF1F5C
:10223000E552FE4F459154915B834A83FC01E85F70
:10224000FD4F94919D831F82188619861A86EBE3B1
:10225000FFE13197F1F7EC91E22331E009F430E04E
:10226000DA01EC91E92309F032603E83BE01802F50
:102270000E9499108B87BE01812F0E9499109B8527
:10228000890F8B87DF91CF911F910F910895109245
:10229000DE011092DD0188EE93E0A0E0B0E08093D3
:1022A000DF019093E001A093E101B093E20180E4AB
:1022B00091E09093DC018093DB018FEF9FEF90938F
:1022C000E8018093E70180913102811113C01092DF
:1022D0002C0210922B0286E492E090932E028093BF
:1022E0002D0288EF90E09093300280932F0281E0DE
:1022F000809331020E94E2086BE272E00E94270A9A
:1023000080E090E00E94DB1190E09093C401809304
:10231000C30143E062E087EB91E00E94EC1040E0F3
:1023200061E08BEA91E00E94EC101092C50180916F
:102330003F02811113C010923A02109239028EE3CB
:1023400093E090933C0280933B0286E390E090936D
:102350003E0280933D0281E080933F020E94E208AA
:1023600069E372E00E94270A1092C9011092C80125
:1023700082E591E09093C7018093C60180914D0260
:10238000811113C0109248021092470284E793E033
:1023900090934A02809349028FE290E090934C021E
:1023A00080934B0281E080934D020E94E20867E433
:1023B00072E00C94270AF999FECF92BD81BDF89A7C
:1023C000992780B50895262FF999FECF1FBA92BD9F
:1023D00081BD20BD0FB6F894FA9AF99A0FBE019606
:1023E00008950E94DB1208F481E008950E940A1209
:1023F0000C9416130E940F1358F00E94081340F01B
:1024000029F45F3F29F00C94FF1251110C944A13E8
:102410000C9405130E94271368F39923B1F35523F5
:1024200091F3951B550BBB27AA27621773078407E7
:1024300038F09F5F5F4F220F331F441FAA1FA9F37D
:1024400035D00E2E3AF0E0E832D091505040E6956B
:10245000001CCAF72BD0FE2F29D0660F771F881FCC
:10246000BB1F261737074807AB07B0E809F0BB0BBF
:10247000802DBF01FF2793585F4F3AF09E3F5105D3
:1024800078F00C94FF120C944A135F3FE4F3983EEB
:10249000D4F3869577956795B795F7959F5FC9F7BC
:1024A000880F911D9695879597F90895E1E0660F3D
:1024B000771F881FBB1F621773078407BA0720F0B6
:1024C000621B730B840BBA0BEE1F88F7E09508951F
:1024D0000E946F126894B1110C944A1308950E94DF
:1024E0002F1388F09F5798F0B92F9927B751B0F064
:1024F000E1F0660F771F881F991F1AF0BA95C9F788
:1025000014C0B13091F00E944913B1E008950C94C9
:102510004913672F782F8827B85F39F0B93FCCF37C
:10252000869577956795B395D9F73EF49095809504
:10253000709561957F4F8F4F9F4F0895E89409C024
:1025400097FB3EF490958095709561957F4F8F4FE6
:102550009F4F9923A9F0F92F96E9BB279395F695FC
:10256000879577956795B795F111F8CFFAF4BB0F7A
:1025700011F460FF1BC06F5F7F4F8F4F9F4F16C0DE
:10258000882311F096E911C0772321F09EE8872F68
:10259000762F05C0662371F096E8862F70E060E024
:1025A0002AF09A95660F771F881FDAF7880F96959D
:1025B000879597F90895990F0008550FAA0BE0E841
:1025C000FEEF16161706E807F907C0F012161306F5
:1025D000E407F50798F0621B730B840B950B39F435
:1025E0000A2661F0232B242B252B21F408950A269B
:1025F00009F4A140A6958FEF811D811D089597F9DB
:102600009F6780E870E060E008959FEF80EC089598
:1026100000240A94161617061806090608950024C1
:102620000A9412161306140605060895092E03943B
:10263000000C11F4882352F0BB0F40F4BF2B11F4AF
:1026400060FF04C06F5F7F4F8F4F9F4F089557FD0E
:102650009058440F551F59F05F3F71F04795880F10
:1026600097FB991F61F09F3F79F0879508951216A7
:1026700013061406551FF2CF4695F1DF08C0161653
:1026800017061806991FF1CF869571056105089404
:102690000895E894BB2766277727CB0197F908951B
:1026A0000E94DB1208F48FEF0895052E97FB1EF4AD
:1026B00000940E946C1357FD07D00E947A1307FC08
:1026C00003D04EF40C946C135095409530952195A1
:1026D0003F4F4F4F5F4F089590958095709561954E
:1026E0007F4F8F4F9F4F0895EE0FFF1F0590F4917E
:1026F000E02D0994A1E21A2EAA1BBB1BFD010DC0FF
:10270000AA1FBB1FEE1FFF1FA217B307E407F507A1
:1027100020F0A21BB30BE40BF50B661F771F881F7D
:10272000991F1A9469F760957095809590959B0113
:10273000AC01BD01CF01089581E090E0F8940C94C4
:06274000A113F894FFCF85
:1027460000C18081000000FFFFFFFFFD01FD01FDCC
:1027560001FD01FD01010000E10000000000000F85
:102766000F0F0F0F0F0F0F0F0405060708090A07B3
:10277600000000001408E206A2062306000000007E
:10278600720A510B670B880AD50A930AB10A000030
:0A2796000000110A9B0520061F0633
:2070000055C000006EC000006CC000006AC0000068C0000066C0000064C0000062C0000043
:2070200060C000005EC00000F2C400005AC0000058C0000056C0000054C0000052C00000EE
:2070400050C0000078C000004CC000004AC0000048C0000046C0000044C0000042C00000BE
:2070600040C000003EC000003CC000003AC0000038C0000036C0000034C0000032C0000048
:2070800030C000002EC000002CC000002AC0000028C0000026C0000024C0000022C00000A8
:2070A00020C000001EC000001CC0000011241FBECFEFDAE0DEBFCDBF11E0A0E0B1E0E2E3BC
:2070C000FFE702C005900D92A83AB107D9F711E0A8EAB1E001C01D92AE3BB107E1F78FD30B
:2070E00026C78ECFF89410926F0010928100109285001092840081E085BF15BE47985D9AEB
:20710000289A0C94000008952091B2013091B3012F5F3F4F3093B3012093B201932F37FFA6
:2071200003C08EEF831B982F990F921710F447980895479A08951F920F920FB60F9211246E
:207140002F938F939F93EF93FF9310928500109284008091A8019091A901009741F00197D3
:207160009093A9018093A801892B09F45D9A8091AA019091AB01009741F001979093AB0126
:207180008093AA01892B09F4289AE0E0F0E0859194918F5F9F4F49F08091AC019091AD0151
:2071A00001969093AD018093AC01FF91EF919F918F912F910F900FBE0F901F90189584E0BC
:2071C0008093E9000DC08091E8008B778093E80003C08EB3882351F08091E80082FFF9CFBE
:2071E0008091E80085FFEFCF8091F1000895982F83E08093E9008091E80085FD0DC0809136
:20720000E8008E778093E80003C08EB3882369F08091E80080FFF9CF9093F1005D9884E6CB
:2072200090E09093A9018093A80108954F925F926F927F928F929F92AF92BF92CF92DF921E
:20724000EF92FF920F931F93CF93DF9384E08093E9008091E80082FF57C2289884E690E067
:207260009093AB018093AA01AADF182F853481F48CE49DE19093AD018093AC0107B600FC4B
:20728000FDCFF999FECF81E180935700E89503C0843519F494DF8DE00DC28C34E1F38035F9
:2072A000D1F3843721F484E4A2DF80E003C2813611F489E5FFC18134B1F481DF182F7FDFE3
:2072C00090E0880F991FAA2797FDA095BA2F312F330F20E0442737FD4095542F822B932B68
:2072E000A42BB52BB8C1803711F483E5E3C1833549F4C0E0D1E089917ADF21E0C730D20714
:20730000D1F7D9C1863521F481E371DF80E3D2C1833731F487E86BDF85E969DF8EE1CAC149
:207320008536B9F4E0E0F0E093E085E090935700E89507B600FCFDCF80935700E89507B65D
:2073400000FCFDCFE058FF4FA0E7E030FA0771F7A2CF823739F4E1E0F0E089E08093570024
:207360008491A8C1863439F4E0E0F0E089E08093570084919FC18E3439F4E3E0F0E089E0E5
:2073800080935700849196C1813539F4E2E0F0E089E08093570084918DC1823631F489E521
:2073A00026DF80E024DF80E885C1823419F0873609F0E5C01092AD011092AC0100DF082FE8
:2073C000FEDEF82EFCDE682E8554823008F071C1902F80E0CF2DD0E0C82BD92B10926F00B3
:2073E000173609F04BC081E180935700E895DD24CC24C3943FC0E090AE01F090AF010091CC
:20740000B0011091B101B6E46B16D9F4ED2DF0E0EE29FF29E4918E2FEADEDD2081F082E08D
:2074200090E0A0E0B0E0E80EF91E0A1F1B1FE092AE01F092AF010093B0011093B101DC2470
:2074400018C0D801C701B695A7959795879559D5CEDE82E090E0A0E0B0E0E80EF91E0A1FF2
:207460001B1FE092AE01F092AF010093B0011093B1012197209709F0BECF7DC08090AE01F5
:207480009090AF01A090B001B090B10196E4691609F05DC083E0F40180935700E89507B63E
:2074A00000FCFDCF54C0F6E46F1661F5772031F1E090AE01F090AF010091B0011091B1019E
:2074C0007EDED82ECC24852D90E08C299D29F7010C0140925700E895112482E090E0A0E08B
:2074E000B0E0E80EF91E0A1F1B1FE092AE01F092AF010093B0011093B10102C060DE582E1A
:20750000742423C0E090AE01F090AF010091B0011091B10116950795F794E79450DE682FFA
:20752000C701F7D48091AE019091AF01A091B001B091B1010296A11DB11D8093AE01909349
:20754000AF01A093B001B093B101219704C05524772444244394209709F0A5CF96E46916B6
:2075600041F485E0F40180935700E89507B600FCFDCF8DE03CDE82E080936F009CC0833492
:2075800071F40091AE011091AF0119DE90E021E0F8010C0120935700E89511247CCE8336C8
:2075A00019F5E090AE01F090AF010091B0011091B10105DEF701E16090E021E00C0120938C
:2075C0005700E895112482E090E0A0E0B0E0E80EF91E0A1F1B1FE092AE01F092AF0100936A
:2075E000B0011093B10157CE8D3661F4E091AE01F091AF0185E080935700E89507B600FCF2
:20760000FDCF49CE823551F4E091AE01F091AF0105911491812FEBDD802F4CC0843421F5FE
:20762000E090AE01F090AF010091B0011091B10116950795F794E794C2DD682FC70169D4DE
:207640008091AE019091AF01A091B001B091B1010296A11DB11D8093AE019093AF01A093D8
:20766000B001B093B10117CE843609F5E090AE01F090AF010091B0011091B101D801C70142
:20768000B695A795979587953CD4B1DD82E090E0A0E0B0E0E80EF91E0A1F1B1FE092AE010A
:2076A000F092AF010093B0011093B10104C08B3111F08FE39CDD83E08093E9009091E8002B
:2076C0008091E8008E778093E80095FF04C010C08EB38823C9F08091E80080FFF9CF809193
:2076E000E8008E778093E80003C08EB3882361F08091E80080FFF9CF84E08093E9008091F1
:20770000E8008B778093E800DF91CF911F910F91FF90EF90DF90CF90BF90AF909F908F90AC
:207720007F906F905F904F9008959091B601892F8F77813249F58091B7018032A1F081328A
:2077400019F5913A09F58091E800877F8093E8008DE091E067E070E00BD28091E8008B770B
:207760008093E8000895913279F48091E800877F8093E8008DE091E067E070E05DD2809192
:20778000E8008E778093E800089582E061EC42E0B5D083E061E842E1B1D084E060E842E1EF
:2077A000ADC084B7877F84BF88E10FB6F89480936000109260000FBE20E880E090E00FB63F
:2077C000F89420936100809361000FBE81E085BF92E095BF3F9A209A559AE1E6F0E02083A1
:2077E000108247985D9A289A109289008AEF8093880090936F0083E080938100F0C0409116
:20780000000850910108109201081092000894B714BE88E10FB6F8948093600010926000D5
:207820000FBE292F30E0F901E270F07091FD18C090FF05C0859194918F5F9F4F81F423FFFF
:207840000FC08091090190910A014817590741F0E0E0F0E0859194918F5F9F4F09F042DC64
:20786000A0DF78941092AD011092AC010CC0DEDC36D38091AC019091AD0181549F4110F00D
:207880001092140141DC80911401882381F78091E00081608093E00025DC80E090E0089598
:2078A000FA01923049F0933061F09130F9F485E191E022E130E01EC087E291E02EE330E04D
:2078C00019C0882329F485E691E024E030E012C0813029F489E691E022E230E00BC0823006
:2078E00029F48DE891E028E130E004C080E090E020E030E091838083C90108958093E9004E
:207900008091EB0081608093EB001092ED006093EC004093ED008091EE00881F8827881F62
:2079200008958091B60188238CF403C08EB38823B1F08091E80082FFF9CF8091E8008B772A
:207940008093E80008958EB3882349F08091E80080FFF9CF8091E8008E778093E800089594
:20796000EF92FF920F931F9345D04CD008ED10E0F80180818F77808380818068808380819B
:207980008F7D808319BC1EBA1092B40180EEE82EF12CF70180818B7F8083F8018081816052
:2079A000808380E060E042E0A9DFE1EEF0E080818E7F8083E2EEF0E0808181608083808144
:2079C00088608083F70180818E7F8083F8018081806180831F910F91FF90EF900895E7ED06
:2079E000F0E08081816080838AE482BF81E08093B501B6CFE8EDF0E080818E7F808310921C
:207A0000E20008951092DA001092E10008951F920F920FB60F9211242F933F934F935F93F6
:207A20006F937F938F939F93AF93BF93EF93FF938091DA0080FF1BC08091D80080FF17C0B2
:207A40008091DA008E7F8093DA008091D90080FF0BC080E189BD82E189BD09B400FEFDCF36
:207A600081E08EBB3BD203C019BC1EBA37D28091E10080FF17C08091E20080FF13C0809138
:207A8000E2008E7F8093E2008091E20080618093E2008091D80080628093D80019BC85E049
:207AA0008EBB1CD28091E10084FF2CC08091E20084FF28C080E189BD82E189BD09B400FEC5
:207AC000FDCF8091D8008F7D8093D8008091E1008F7E8093E1008091E2008F7E8093E20012
:207AE0008091E20081608093E2008091B401882331F48091E30087FD02C081E001C084E067
:207B00008EBBECD18091E10083FF21C08091E20083FF1DC08091E100877F8093E10082E06A
:207B20008EBB1092B4018091E1008E7F8093E1008091E2008E7F8093E2008091E2008061E9
:207B40008093E20080E060E042E0D8DEC7D1FF91EF91BF91AF919F918F917F916F915F9130
:207B60004F913F912F910F900FBE0F901F9018959C014091BC015091BD014617570718F49D
:207B8000F90190E044C06115710511F0AB01F8CF8091E8008E778093E80040E050E0F0CF0F
:207BA0008EB3882309F444C0853009F443C08091E80083FF02C081E008958091E80082FD70
:207BC00031C08091E80080FF22C08091F3009091F200782F60E0292F30E0262B372B07C07A
:207BE00081918093F100415050402F5F3F4F4115510519F02830310598F390E02830310566
:207C000009F491E08091E8008E778093E8004115510531F6992321F605C08EB3882341F075
:207C2000853041F08091E80082FFF7CF80E0089582E0089583E008959C016115710529F47C
:207C40008091E8008B778093E800F90126C08EB3882391F1853091F18091E80083FF02C06C
:207C600081E008958091E80082FFF1CF06C08091F10081936150704059F02091F300809191
:207C8000F200322F20E090E0822B932B892B79F78091E8008B778093E80061157105B9F601
:207CA00005C08EB3882341F0853041F08091E80080FFF7CF80E0089582E0089583E00895C2
:207CC0000F931F93DF93CF9300D0CDB7DEB7E6EBF1E08091F100819381E0EE3BF807C9F792
:207CE00024DD8091E80083FFE4C08091B6019091B701953009F46DC0963040F4913081F1A7
:207D0000913070F0933009F0D4C02AC0983009F4A3C0993009F4B2C0963009F0CAC07CC023
:207D2000803809F4C6C0823809F0C3C08091BA0187708093E9008091EB001092E9002091DB
:207D4000E800277F2093E80090E025E0969587952A95E1F781708093F1001092F10087C0D8
:207D6000882319F0823009F0A4C08F71823009F0A0C08091B801882331F52091BA01277097
:207D800009F497C02093E9008091EB0080FF1BC0933021F48091EB00806213C08091EB0018
:207DA00080618093EB0081E090E002C0880F991F2A95E2F78093EA001092EA008091EB00E5
:207DC00088608093EB001092E9008091E800877F51C0882309F06DC01091B8011F770FB79B
:207DE000F8948091E800877F8093E8009ADD8091E80080FFFCCF8091E3008078812B809398
:207E0000E30080688093E300112311F482E001C083E08EBB0FBF4DC08058823008F049C033
:207E20008091B8019091B9016091BA01AE014F5F5F4F36DDBC01009709F43BC08091E8008E
:207E4000877F8093E80089819A8192DE8091E8008B778093E8002DC0803859F58091E800AA
:207E6000877F8093E8008091B4018093F1008091E8008E778093E80054DD1BC08823C9F4CA
:207E80009091B8019230A8F48091E800877F8093E8009093B40145DD8091B401882331F420
:207EA0008091E30087FD02C081E001C084E08EBB6CDC8091E80083FF0AC08091EB0080624E
:207EC0008093EB008091E800877F8093E8000F900F90CF91DF911F910F91089508951F9360
:207EE0008EB3882361F01091E9001092E9008091E80083FF01C0E4DE17701093E9001F916F
:207F00000895F999FECF92BD81BDF89A992780B50895262FF999FECF1FBA92BD81BD20BDBD
:207F20000FB6F894FA9AF99A0FBE01960895F894FFCF4341544552494E4100777700080031
:207F40000000000000080112011001020000084123360001000201000109023E00020100FF
:207F600080320904000001020201000524001001042402040524060001070582030800FF0C
:207F800009040100020A000000070504021000010705830210000104030904220341007216
:207FA000006400750069006E006F0020004C0065006F006E006100720064006F0000001836
:1A7FC00003410072006400750069006E006F0020004C004C004300000000D7
:00000001FF
